:020000040000fa
:10000000f07f002049a500001b7d00008f890000c3
:1000100000000000000000000000000000000000e0
:100020000000000000000000000000002776000033
:100030000000000000000000277600002776000086
:1000400027760000277600002776000015ae000016
:10005000277600002776000027760000277600002c
:10006000277600002776000027760000277600001c
:1000700031a20000277600002776000027760000d6
:1000800027760000277600002776000027760000fc
:1000900027760000277600002776000027760000ec
:1000a000277600002776000009b5000027760000bb
:020000040000fa
:1000b000f8b5c046f8bc08bc9e46704729a50000ac
:1000c000f8b5c046f8bc08bc9e46704701a50000c4
:020000040000fa
:1000d0008081000001000000d487000001000000c2
:020000040000fa
:1000e000002210b5034b1a6059689868203206f058
:1000f00027fb10bd88130020642343430248c01827
:10010000436b18787047c046800c0020642343433b
:100110000248c018436b58887047c046800c0020c6
:10012000642343430148c018406b7047800c002093
:10013000642343430248c018436b5b680b607047fd
:10014000800c00206423434330b50e48c018436b35
:100150005c6858881b78012b0ad0002807d0002340
:100160000022e5580132cd5004339042f9dc30bd15
:1001700000230028fbd0e25cca5401339842fadc29
:10018000f5e7c046800c00206423434330b50e4899
:10019000c018436b5c6858881b78012b0ad0002874
:1001a00007d000230022cd580132e550043390429d
:1001b000f9dc30bd00230028fbd0ca5ce2540133d7
:1001c0009842fadcf5e7c046800c0020034b10b5de
:1001d0001b68002b01d0fff783ff10bd88130020a0
:1001e000304b142270b501241d005a660a3a9a66f3
:1001f00062329c546c35543a6a801a00042174327d
:100200001a67294a2948116111001431d16024214b
:1002100054540021916211000c31d1622449c66806
:1002200051632449d46311638168dc8091630021a8
:100230001c814f34166419550600140010364834da
:1002400051641e60197119615961996119771c62b5
:10025000194c5d63dc63194c1c64194c5c64194ccb
:100260009c64194cdc64140040345c621400383423
:100270009c621c006434dc62140024329a632022e5
:1002800030341c63845c002c01d0d9608154036835
:10029000002b01d0fff724ff01210c4800f0eafefb
:1002a00070bdc046800c0020000d00208813002087
:1002b0004c0d002032000001196100004561000072
:1002c00099610000d1630000096400008c110020d6
:1002d000f0b564273b00c64643431d4d00b5eb18ff
:1002e0001b7906005f439846eb199b6a5a68002aff
:1002f0000bdd002418682201801806f08ffaeb1934
:100300009b6a01345a68a242f4dc434664275f4387
:10031000eb195b6a5a68002a0bdd00241868220179
:10032000801806f07bfaeb195b6a01345a68a24226
:10033000f4dc64235e430023ad192a6b2b616b61ef
:10034000ab612b770120937004bc9046f0bdc04692
:10035000800c002064235843064b10b51b181a7af2
:100360000020012a00d010bd587a01f009f80120c0
:10037000f9e7c046800c002070b5051e074c07d079
:10038000642068432418a36a186806f05dfa70bdfb
:10039000e16a20000af02efef2e7c046800c002041
:1003a00010b5fff7e9ff012010bdc04664234343a9
:1003b0000348c0180023026b037793707047c04650
:1003c000800c0020642343430248c018036b9878d4
:1003d0007047c046800c00206423434370b50e4d27
:1003e000eb181c6b1a7f21884a43002908d0930020
:1003f00062680024d2180023013310c29942fbdc4a
:10040000642358432d18ab6a002218680021012389
:100410000af0bef870bdc046800c00206422424342
:100420000a4930b58a18137f146b0133dbb2137796
:10043000e278551eab4201d10125a570934204d349
:1004400064235843002309180b7730bd800c00202b
:10045000642343430748084ac018c36810b5934251
:1004600005dc0133c360c36c984780b210bd0348fc
:10047000fce7c046800c0020a0860100feff0000c3
:1004800064234343034810b5c018836c984780b277
:1004900010bdc046800c0020002300b583b001933e
:1004a00064334343034801a9c018436c984703b021
:1004b00000bdc046800c00206423534310b50100ea
:1004c0000248c018c36b984710bdc046800c00207e
:1004d00070b5010064244c4306480419236c984706
:1004e0000500012801d0280070bda36a186806f035
:1004f000a7f9f8e7800c002030b5134c83b02379be
:10050000984201d003b030bd0028fbd00020fff797
:10051000dfff05000128f5d10020fff75dff002374
:1005200001a901932000636c9847237f216b01335d
:10053000dbb22377ca78501e834200d18d7093427c
:10054000e0d300232377dde7800c002064224243c0
:10055000044b10b59b181b79834202d11800fff79a
:10056000cbff10bd800c002010b564246043104cfc
:1005700024182000a36c984780b2012814d1e368a6
:100580000c4a93420edc0133e3602000e36c984791
:10059000094a81b203000020914200d110bd180425
:1005a000000cfbe70548f9e701204042f6e7c046aa
:1005b000800c0020a0860100ffff0000feff00006d
:1005c000f0b5c646642400b55443214e82b03419b8
:1005d0000100e36b200015009847002829d028006f
:1005e000fff776ff012824d12800fff7f5fe00234e
:1005f00001a9019398462000636c984707000128e1
:100600001ad12800fff7b0ff237f216b0133dbb243
:100610002377ca78541ea34200d18f70934204d32b
:1006200064235d4300237619337702b004bc9046ff
:10063000f0bd01204042f8e7434642462377236b52
:1006400028009a70fff798fe02204042ede7c0466e
:10065000800c0020f0b564245443354e83b0341927
:100660000100e36b20001500984700285dd02800aa
:10067000fff72eff012858d12800fff7adfe002319
:1006800001a901932000636c9847012803d1236bd3
:100690009b78002b27d123799d421bd064226a438b
:1006a000b218137f116b0133dbb21377ca78501e77
:1006b000834213d0934207d228000227fff75cfe43
:1006c0007f42380003b0f0bd64236b43f61800236b
:1006d0003377f1e72800fff70fffdfe7012088708d
:1006e0009342e9d3f0e72800fff73eff23790700a4
:1006f0009d4213d064226a43b218137f116b0133f9
:10070000dbb21377ca78501e83420bd09342d8d302
:1007100064235d43002376193377d2e72800fff77f
:10072000ebfee7e701208870f0e701277f42c8e78a
:10073000800c0020f0b564245443384e83b0341943
:100740000100e36b200015009847002828d02800fe
:10075000fff7befe012823d12800fff73dfe00234e
:1007600001a901932000636c984701283ad1236bbb
:100770009a78002a17d02800fff7f6fe23790700a1
:100780009d4209d06420002368433018026b037730
:100790009370380003b0f0bd2800fff7adfef1e71d
:1007a00001277f42f5e7227f0132d2b22277d97842
:1007b0004c1ea24200d198708a4204d364230022c6
:1007c0006b43f3181a7764206843301803799d420d
:1007d00002d12800fff790fe02272800fff7ccfd8a
:1007e0007f42d6e723799d4202d12800fff784fe9d
:1007f00064226a43b218137f116b0133dbb21377a3
:10080000ca78501e834201d1012088709342e3d3fd
:1008100064200023684330180377dde7800c002054
:10082000f8b5de4657464e4645469246e0b59b46ed
:10083000002a20dd8bb298464b0099460700002520
:100840005b4664245c430f4b40469c466444a26a6a
:100850002b0116680135f61805f05cff434682b29d
:100860003900300005f09eff00234f44236163618f
:10087000a361aa45e4d13cbc90469946a246ab464a
:10088000f8bdc046800c0020f0b583b00500fff72e
:100890001ffe012825d164242800fff79dfd0023b9
:1008a0006c43114e0193341901a92000636c9847e1
:1008b0000700012815d12800fff756fe237f216b82
:1008c0000133dbb22377ca78541ea34200d18f7064
:1008d000934204d364235d4300237619337703b036
:1008e000f0bd01204042fae7800c0020f0b5c6467a
:1008f00000b582b00500fff7ebfd8046012827d147
:1009000064242800fff768fd00236c43244e019304
:10091000341901a92000636c9847070001281ad1f7
:100920002800fff721fe237f216b0133dbb2237701
:10093000ca78541ea34200d18f70934204d364231b
:100940005d43002375192b7702b004bc9046f0bdbf
:1009500001204042f8e7237f216b0133dbb223778c
:10096000ca78501e834218d0934204d364230022d5
:100970006b43f3181a772800fff7fefc64236b43e0
:10098000f61833799d4202d002204042dce728006d
:10099000fff7b2fd02204042d6e740468870e3e709
:1009a000800c0020f0b583b00500fff791fd012811
:1009b00029d164242800fff70ffd00236c43234e48
:1009c0000193341901a92000636c984701281ad1ba
:1009d000276b237ffa78511e8b4217d12800fff72f
:1009e000c3fd237907009d4209d06420002368439a
:1009f0003018026b03779370380003b0f0bd280005
:100a0000fff77afdf1e701277f42f5e70133dbb21b
:100a10002377994218d09a4204d8642300226b436a
:100a2000f3181a772800fff7a7fc642068433018f2
:100a300003799d4202d002277f42dde7022728008a
:100a4000fff75afd7f42d7e7b870e4e7800c00203b
:100a500010b504000020002c00d010bd044b586bd2
:100a60004468587a13000a00210000f02bfbf4e7d9
:100a7000800c002010b504000020002c00d010bd18
:100a80000248407a00f01efbf9e7c046800c0020c7
:100a900000207047002070470020704770b5642424
:100aa0006043084c0d002418237a0020012b00d04d
:100ab00070bd607a00f09cfc636b28805b8801202d
:100ac0006b80f5e7800c002010b564244443064b8e
:100ad0001b191c7a0023012c01d0180010bd00f056
:100ae0001dfc0123f9e7c046800c0020002804dc2f
:100af00064235843024bc05870470020fce7c046af
:100b0000800c0020642343430348c018036b1a88f9
:100b1000d87850437047c046800c0020642343437c
:100b200030b50848c018036b1a88d878504300289d
:100b300007d05c6800238200cd58e550043393420f
:100b4000fad130bd800c0020642343430248c01812
:100b5000036b58687047c046800c002064234343f1
:100b60000248c018036bd8787047c046800c00203c
:100b70006423434330b50848c018036b1a88d878fb
:100b80005043002807d05c6800238200e558cd5010
:100b900004339342fad130bd800c002064234343d8
:100ba000074ac000d3181218906e1a69196b944640
:100bb000c978db8801394843604458437047c046d0
:100bc000800c0020642343430148c018006970472b
:100bd000800c0020642343430248c018836a58688d
:100be0007047c046800c0020f0b5de4657464e46a2
:100bf0004546e0b585b00393214b029298466423a5
:100c00000022434343449b6a924601925a688146bc
:100c10008b46002a2cdd5a46002a23dd5246170156
:100c2000019a02995500039a0c0094460a005a440e
:100c30006544160004e064234a46534343449b6ad8
:100c400018682100c01905f0e3fd01342880023541
:100c5000b442f0d1019b4a465b4401936423534361
:100c600043449b6a012294465a68e2445245d2dcce
:100c700005b03cbc90469946a246ab46f0bdc04686
:100c8000800c0020642343430748084ac018c36807
:100c900010b5934206dc0133c360c36c984700046f
:100ca000000c10bd0248fce7800c0020a08601006b
:100cb000feff0000642343430148c018806b704767
:100cc000800c0020642343430148c01840697047ea
:100cd000800c002064234343064ac000d318196bdc
:100ce0001218c978906e013948435a69121ad88887
:100cf00050437047800c0020642343430248c018cf
:100d0000503000787047c046800c00206423434375
:100d10000a4830b5c018030050331b78002b0cd0a4
:100d2000436b5c88002c08d000230022406dc5581e
:100d30000132cd500433a242f9db30bd800c0020db
:100d4000642343430a4830b5c018030050331b786e
:100d5000002b0cd0436b5c88002c08d000230022b1
:100d6000806dc5580132cd500433a242f9db30bd4d
:100d7000800c0020642343430548c018030050330f
:100d80001b78002b01d0c06d70470248fce7c046bd
:100d9000800c0020000080bf642343430548c01836
:100da000030050331b78002b01d0006e70470020e9
:080db000fce7c046800c0020a6
:020000040000fa
:100db8007047c046f0b54746ce460b7880b590469a
:100dc8001a4a9c46430018181368c0001b185b8811
:100dd800002b20d000260024154b99461b685f88fd
:100de8001d89bd420dd9b44519d97500ad196d00dd
:100df80045442f809f8801366f80df88f6b2af8028
:100e08000e70156801342d186d88e4b2db68a542b0
:100e1800e5d84a4613600cbc90469946f0bd624638
:100e28000a704a46db681360f5e7c0467004002084
:100e3800140e002030b50c78002c0fd00021084d7e
:100e48002b68588801311080988889b25080d888da
:100e5800db6890800632a142f3d32b6030bdc046d8
:100e6800140e0020f0b50123454680464e46de4666
:100e7800574699464346e0b5944683b0002b49d07f
:100e88000023424600269b46019301239a460025eb
:100e98001300d3440135db68002901d043455bd0fa
:100ea800002b01d04d45f5d14f46002d1bd0002f0a
:100eb80042d0002b40d050885c88001b00283bddc6
:100ec800d868013f1c00002902d00023804500d0cb
:100ed8000300002e3bd0f4606046002800d0266155
:100ee8002600002de3d1002f33d0002be8d10029b4
:100ef80016d06346019af260002b00d016615b465b
:100f0800012b11dd4b465b009946019b98464346f1
:100f1800002bb5d10023002601939b460029e8d178
:100f28005b46f160012beddc019803b03cbc9046b8
:100f38009946a246ab46f0bdd068013d1400002991
:100f480002d000228045c4d00200002ec3d10194f3
:100f5800c2e71a1e99d1cae70023a5e77047c04621
:100f68000368002b0cd000290ad0ca688b4208d02d
:100f78000b69002a01d013610b69002b00d0da60dd
:100f880070470260ca680b69002af4d1f5e7c046c9
:100f980040884b88c01a704710b5002802d0fff768
:100fa80061ff10bd0020fce710b584b20c48002397
:100fb80002001188a1420dd0013314320a2bf8d156
:100fc800084c2068002803d001220121fff74affbe
:100fd800206010bd9a00d3189b00c018014cf3e79d
:100fe800440e0020140e0020f0b5c6460021174b11
:100ff80000b51a6843001b18db00d3185e8883b25b
:10100800984613488e4213dd4c1ca3008a001b1916
:10101800521892009b00c5188718fd6045468552f6
:10102800002902d0283bc3183b6121008e42ebdc2b
:101038004346013903808b0059188900054b411834
:10104800c8600161186004bc9046f0bd70040020bf
:10105800440e0020140e0020024b1860024b0020a2
:101068001971704770040020140e0020024b18609c
:10107800024b00201971704770040020140e0020e4
:1010880010b50c4b04001979002911d00a4b1b68c4
:101098001a7882420cd01833002005e018331a0061
:1010a800183a1278a24204d00130c0b28842f5d171
:1010b800002010bd140e002070040020f0b5474633
:1010c800ce4680b59c46234bc0b21f79224b1b6885
:1010d800002f10d01c7884420dd01d000024183534
:1010e80005e018352e00183e3678864227d00134a0
:1010f800e4b2bc42f5d15f88d888b84227d99e8827
:1011080038b28046002e0bd04500d8684544814649
:101118000020ed004d440c5c2c540130b042fadb49
:10112800186941468046604689004144088001208c
:1011380001374a805f800cbc90469946f0bd60003c
:101148000419e4001b195f88d888b842d7d8012051
:101158004042f0e7140e002070040020f8b5ce4697
:10116800474680b53a4bc0b21c793a4b1d68002cf3
:1011780010d02b7883420dd02a000023183205e0c6
:101188001832110018390978814258d00133dbb27e
:10119800a342f5d16b88002b4dd02f4b002600249d
:1011a8000027984604e06b8801340636a3422cddfc
:1011b8006b6921009a5f404609f096ff6b6999199f
:1011c80000228b5e002beeda2b7a9c46002b3bd05c
:1011d800002301220231c85c0133b84201d907005b
:1011e800dab26345f7db93b29946404621001430e2
:1011f80009f07aff2a69a30094464a4663445a8054
:101208006b8801340636a342d2dc002b13d00021b0
:101218006c69287a5d00ed18a21c6d005519002331
:10122800002803d0d15401338342fbdb06322180ee
:1012380006349542f3d10cbc90469946f8bd5a0045
:10124800d318db00ed18a5e7012301229946cce766
:10125800140e0020700400204c950000f0b5d6460e
:101268004f464646c0b5284bc0b21c79274b1d686f
:10127800002c10d02b7883420dd02a00002318327e
:1012880005e01832110018390978814237d0013346
:10129800dbb2a342f5d16b88002b2bd000239846f4
:1012a8001b4b0026994634234b449a464f466b699c
:1012b80041469a5f504609f017ff2b7a00224c37b7
:1012c800002b0cd06b69541c9b199b189a78210031
:1012d800380009f009ff2b7a22009c42f2db4846cd
:1012e800483009f001ff01239c466b88e04406362c
:1012f8004345dbdc1cbc90469946a246f0bd5a002b
:10130800d318db00ed18c6e7140e00207004002087
:101318004c950000f0b5164bc0b21e79154b1f68ee
:10132800002e10d03b7883420dd03c0000231834a7
:1013380005e018342500183d2d78854212d0013378
:10134800dbb2b342f5d138698b00844663445888d0
:101358001b88508013804b005b18f968db00cb18a2
:101368005360f0bd5800c318db00ff18ebe7c04618
:10137800140e00207004002070b5184e184b3479f4
:10138800c0b21d68002c10d02b7883420dd02a00e3
:101398000023183205e01832110018390978814203
:1013a80016d00133dbb29c42f5d1002000236b80bc
:1013b80033600c4b012519000024c8316d421a888e
:1013c800824201d11d809c8014338b42f7d170bdbd
:1013d8005a0098b2d318db00ed18e7e7140e002086
:1013e80070040020440e002030b50f4bc0b21c79a9
:1013f8000e4b1d68002c10d02b7883420dd02a008c
:101408000023183205e01832110018390978814292
:1014180005d00133dbb2a342f5d1688830bd5a004c
:10142800d318db00ed18f8e7140e00207004002034
:10143800f0b5de464e4657464546e0b5614e8b460a
:10144800317987b004000392002900d1b4e05e4fdf
:101458003b681a7882420dd01833002006e0183312
:101468001a00183a1278a24200d1a0e00130c0b2a6
:101478008842f4d1002300209846fff7b5fd0023e9
:10148800039a306013703b6843441d005b88002b4f
:1014980059d04e4b00249a461be0012939d000222e
:1014a800022958d09a420ad2484a8388924500d1e4
:1014b80078e09a4503d002229a4603990a703b685d
:1014c80014304344306001341d005b88a4b2a34249
:1014d80039d92a69a300944663445a881b888280b4
:1014e8000022944600220381c4804280e97a0029c0
:1014f800d3d16000ea680019c0001018ab8805aaab
:10150800594609f0f9fa059b30689ab24280038976
:10151800c8e7624602abda72eb6860009c460019c5
:10152800ab8802a9c000604400938c4632000b23ac
:1015380008326344594608f0b9ff02ab3068da7ada
:1015480003894280aee7002007b03cbc904699462c
:10155800a246ab46f0bd02aa91460b2362464b4415
:101568001a706b7aa8889946190007f075fd610012
:10157800eb680919c90059184b460200009303008b
:10158800584609f065ff3b684344597a988807f044
:1015980063fd010009f05eff0200306892b24280ec
:1015a80003897fe7012203999a460a7087e7430077
:1015b8001b18db00984660e7002300209846024f7e
:1015c8005be7c046140e002070040020ffff0000f7
:1015d800f0b5184d184b2e79c0b21c68002e10d0eb
:1015e800237883420dd022000023183205e01832f8
:1015f800110018390978814216d00133dbb2b342a1
:10160800f5d16688002e0ed000222b6859881889db
:10161800884203d9d88827698000c1530132db6822
:10162800b242f3db2b60f0bd5a00d318db00e4189c
:10163800e7e7c046140e002070040020f8b54746be
:10164800ce4680b5194d0e00297917009846002915
:1016580011d0174b00241b681a781833824206d120
:1016680009e018331a00183a1278824204d001347b
:10167800e4b28c42f5d100242000fff795fc8146a6
:101688000c4bb6002b620c4bae196b620b4b4246ef
:10169800ab620b4b3900eb62336a200098474b462c
:1016a8002b600cbc90469946f8bdc046140e00202d
:1016b80070040020bd0d00003d0e0000b90d0000b3
:1016c800650f0000f0b54746ce4680b585b06b463d
:1016d800dd1d00232b70464b06001879454b9046bc
:1016e8001f68002810d03b78b3420dd03b0000247f
:1016f800183305e018331a00183a1278b24250d05d
:101708000134e4b2a042f5d1002406236b44994683
:1017180001234a464968137030002a00fff788fe03
:101728002b785a1e012a41d9002b0fd002ab5d88b5
:10173800314b9d4233d0280009f014fd43465860d0
:10174800280005b00cbc90469946f0bdb97a01292d
:101758002dd00029ead1012302ad5b4220006b8025
:10176800fff722fc43468146c6889b6830001c6808
:1017780009f0f8fc4b462060988809f0f3fc3b69b7
:10178800b6006060f05a09f0edfc4b46a06058883e
:1017980009f0e8fce0606d88174b9d42cbd1002032
:1017a800cce763001b19db00ff18aee7b97a02ac7f
:1017b8004a4630002300fff741ffa3889946434675
:1017c8009b6848461e6809f0cdfc30606588280093
:1017d80009f0c8fc4b463a699b007060985a09f0ba
:1017e800c1fcb060208809f0bdfcf060a0e7c046ed
:1017f800140e002070040020ffff0000f0b5c6465c
:1018080000b582b06b46dc1d00232370244b8c4648
:101818001979244b050017001e68002910d0337869
:1018280083420dd032000023183205e01832100030
:1018380018380078a8421fd00133dbb28b42f5d1ab
:1018480006236b44984601234246614613702800dc
:101858002200fff7edfd23785a1e012a11d9002b2b
:1018680006d1b37a012b13d0002b01d1013b7b8029
:1018780002b004bc9046f0bd5a00d318db00f6183d
:10188800dee7b17a3b0042462800fff7d7feefe7d4
:101898003b00424601212800fff7d0fee8e7c0469a
:1018a800140e002070040020f0b54746ce4680b5df
:1018b8009846264b0500c7b21879254b83b0894650
:1018c80014001e68002810d03378bb420dd03200b7
:1018d8000023183205e01832110018390978b94286
:1018e8002cd00133dbb28342f5d1002c02d0337afd
:1018f800a3420ad21748583009f0f6fb01204042ab
:1019080003b00cbc90469946f0bd00236a46494690
:1019180038005380fff772ff6b460f4a5b8893428b
:1019280004d0a3420fd02800fff752fe43462200fe
:1019380049462800fff7c2fb0120e1e75a00d31807
:10194800db00f618d1e70020dae7c046140e0020c5
:10195800700400204c950000ffff0000f0b5284bf4
:1019680083b01f79274b1600c0b21d68002f10d016
:101978002b7883420dd02a000023183205e0183254
:101988001400183c2478844229d00133dbb2bb42ce
:10199800f5d1002e02d02b7ab34205d21a4858301e
:1019a80009f0a2fb03b0f0bd6a46fff727ff6b46bc
:1019b8005988b14218d09b885a00d21850006a69d9
:1019c8001218108801381080701e12189078013093
:1019d80090700d483200783009f086fbe2e75a0033
:1019e800d318db00ed18d4e76b469b885a00d21851
:1019f80050006a691218108801301080e4e7c04668
:0c1a0800140e0020700400204c9500001b
:020000040000fa
:101a1400024a53781b06fcd47047c046004c00426f
:101a2400f0b506241e4b44431a68002093681c1921
:101a340063888b422cd02cd2c91a126889b293784d
:101a4400402b00d149080120842921d800200529f0
:101a54001ed9cf250f261527a3881c009804800fb4
:101a640068431d1235407d431b11334040195b0010
:101a7400c018344080b2052c0dd8d378094a9b068f
:101a84009b0f5b009b5a594389b288428041404274
:101a9400f0bd591ad1e70130053c80b2e4b2eae75f
:101aa40004000020beac00000d4a70b5106801258a
:101ab40002680c49148806220b885a43a3420ad2ae
:101ac4008668b65c06322e4202d101339bb2f5e73a
:101ad40000200b8070bd002301200b80fae7c04674
:101ae40004000020e80f0020f0b587b00700fff7de
:101af4008fff0222654c664d2378fe0093432370ca
:101b04002b685b689b199a78624b510706d4196954
:101b14006148014019615a690240b5e0110700d5d6
:101b2400a0e080201a695c4940010a4002431a611e
:101b34005a69114008435861fff76aff2b685b68d4
:101b44009b195b882382fff763ff2b685b689b5bb1
:101b54006382fff75dff06232a687b439768ff18bb
:101b6400bb8823833b789b0701d505233b703f78d3
:101b7400fff74effff067f0f3f23002f07d12b688f
:101b84005b689b195a79454b12099b181b7aa376fb
:101b9400fff73eff2b6807275b689b191b791b091e
:101ba400e376fff735ff03212b685b689b191a79ed
:101bb40023790a408b4313432371fff729ff2b68d2
:101bc4005b689e19b2790226637b3a40bb43134398
:101bd4006373fff71dff237833432370304b5b6837
:101be4000393002b35d00125fff712ff237b1b073e
:101bf4001b0f0493fff70cff23799b079b0f05939f
:101c0400fff706ff2378b3432370fff701ff6379df
:101c14001d433543fff7fcfeedb2224b65711a6894
:101c2400082311780b431370fff7f2fe657bfff76f
:101c3400effe637bedb2bb436373059a1a4b0095c9
:101c440004990020039da847fff7e2fe23781e4372
:101c54002670fff7ddfe8023627b5b4213436373d0
:101c640007b0f0bdd10605d480201a690a49800165
:101c74000a405be71969920600d549e7c022920140
:101c84001143196159690a435a6155e7004c0042ee
:101c94000400002000440042ffcfffffbeac000060
:101ca400e80f0020000000200d4c0042f8b5154b51
:101cb4001b681b689a78402a1fd1134a157804269a
:101cc4001a790f23354313400f2a00d910236024b7
:101cd4000e4ff6b21c43fff79bfe3e700026fff743
:101ce40097fee4b23e71fff793fe3c73fff790fe5c
:101cf4003000074bedb2dd77f8bd0220802afbd11e
:101d0400044adbe7040000209cac0000004c0042c5
:101d1400014c00429dac00000b23002802d0024b72
:101d24001860002318007047000000200b230028cf
:101d340002d0024b5860002318007047e80f0020bf
:101d4400034b03205a68002a01d0002058607047d2
:101d5400e80f00200322f0b5af4b89b01b7a05923f
:101d6400002b14d0ad4b1b6803931b6804931b8892
:101d74000693ab4b1b6807930023029305936b46b2
:101d84001a89069b9a4205d30222a34b1a7205981c
:101d940009b0f0bd0626029b07995b00cc5a039b51
:101da40003999b6849680193029b5e43019b9e19ba
:101db40007233578ad081d40029bdb00cb18019347
:101dc4009b79042d00d926e1280009f00bfb0500be
:101dd40013000701d9000f000f21019a52790a401c
:101de400934201d99d1aedb22c417480029b0133b8
:101df4000293c4e71c41a3b28a4c7380b788a34200
:101e040017d9894a9b182a009bb2049989784029da
:101e140013d15b08151e12d1844a002597420ed1b6
:101e240081233370733b059333785a0617d5012306
:101e340025e0e31a9bb20022e7e7002aecd1042b49
:101e4400f2d903210f243a1338118c460a4039126f
:101e5400214020402740002d5ad00a245ee05bb286
:101e6400002b0ddb0322049bdb781340022b0bd1e8
:101e7400019b0c321b799343019a1371092333702c
:101e8400bf04bf0cb780b1e7012bd0d10f22019b57
:101e94001b791a4030231343019a13710d23eee783
:101ea4000132cf3bd2b29bb2cf2b01d9032af7d157
:101eb400152b0dd90f2906d12100032a0ad001328e
:101ec400d2b2290006e00131153bc9b29bb2efe75b
:101ed4000f29f1d0022b0dd90f2806d10f290fd1cc
:101ee400032a00d1a4e020000fe00130023bc0b27d
:101ef4009bb2efe70f28f1d0032a33d1624604e006
:101f04000131c9b22800032af8d0022bccd829e029
:101f14000525c9e7013acf3bd2b29bb2cf2b01d9f9
:101f2400002af7d1152b0cd9002905d1111e0ad08e
:101f3400013ad2b2210006e00139153bc9b29bb285
:101f4400f0e70029f2d0022b0ad9002803d1002996
:101f540010d1080006e00138023bc0b29bb2f2e7a0
:101f64000028f4d0120392b2090211430f43000176
:101f7400074387e70139c9b22000022bced8f1e725
:101f84001c41019ba4b21f793d09032d24d02100db
:101f94001000fff745fd002819d1013501233370e6
:101fa4000f232d011f40019b3d431d713378748025
:101fb400012b00d01ae71b4b9c422ad91a4be41878
:101fc400a4b2052c00d811e7452333700ee7002d89
:101fd400e4d0013dedb2e3e70225e1e71c410f2522
:101fe400019ba4b21f793d4011d021001000fff7de
:101ff40017fd002806d1013dedb2012333700f23f4
:102004009f43d0e7032df8d00135edb2f7e7012562
:10201400f5e71c1bd4e7fee7e80f002004000020ce
:1020240008000020ff01000001feffffff3f000049
:102034000f008ee7f7b580213d4a3e4c1369c90075
:1020440023400b43136153692340194351610b240b
:10205400002840d00368198800231f0001939ab216
:1020640091423ad80224002f35d0019b00201b0452
:102074003b439c46012110250d346346c3400b426b
:1020840011d02d4bc35c1f2b35d82c4e5a089219f6
:1020940016780b422cd026402e431670284a9b18e3
:1020a4001a780a431a7001302028e6d10024254dfd
:1020b400fff7aefc244b2c701e7aa6422bd1fff7ff
:1020c400a7fc6b469b883400eb82fff7a1fc01233d
:1020d4001d4aaf8213722000febd4468da00a218c4
:1020e4001488019d01332543019552881743b6e7af
:1020f400a6430e43d1e7203b144edbb25a08921993
:1021040016780b4204d026402e431670104ac6e7b8
:10211400a6430e43f9e7fff77bfceb8a019a1a43c7
:10212400ea82fff775fcab8a3b43ab82d3e7c04638
:1021340000440042fff8ffff9eac00003044004121
:1021440040440041004c0042e80f0020b0440041ec
:10215400c04400410b23002802d0024b1860002326
:102164001800704708000020f7b5070001910b2400
:1021740000290ed000280cd02c4d083c2b7a002bc3
:1021840007d0023c042b04d0294e737b5bb2002b96
:1021940003da2000febd2c72fbe7022403685b799e
:1021a400013ba342f5d8fff733fc3378a3433370e4
:1021b400204b1f60019beb60fff778fd80221e4bd4
:1021c400d204da67bff34f8fbff36f8f0723b37265
:1021d400fff71efc0122737a802113437372174b9d
:1021e400c9041a70c023164a5b00d150c622ff20ce
:1021f400134b920099583b6800045b799b0503409c
:10220400104801400b430e498b5080220023d20416
:102214000a602b80fff748fc061ebcd104232888e3
:102224002b723400fff760fcb3e7c046e80f0020d0
:10223400004c00420400002004e100e05b10002098
:1022440000e100e0ffff00ff0b2300280ad0036831
:102254001a8802238a4205d3043359438268053b12
:102264008b54002318007047030010b50b20002b7b
:1022740016d01a68093814888c4211d392789b6856
:10228400402a0ed18d203a3a4a4380009a18908011
:102294000020062251435b181978043a0a431a7045
:1022a40010bd803ad2b2012af3d806224a4301482b
:1022b4009a18ece767050000f8b506000b2500291d
:1022c40014d0002812d00268002a0fd01768808822
:1022d4003b88093d984209d23f48013d037a042bcb
:1022e40004d03e4c637b5bb2002b01da2800f8bdbe
:1022f40002257b79013bab42f8d8394b01611a6066
:10230400384b0f271d70fff7d1fc06233168b288c4
:10231400886853434968d2008a185179c3185b8886
:10232400b0790f4091791a18c91bc9b292b28a4088
:102334001b1a9bb28b4092b2a28407222a499bb2f9
:10234400e384cb7f294f93431a0004231343802251
:10235400cb77274bd204da67bff34f8fbff36f8f6e
:10236400fff756fb0122a37a1343a372fff750fb36
:10237400a37a2b43a372fff74bfb0122237a134367
:102384002372fff745fb637a80222b436372c023d9
:10239400d2045b00fa50ff20c622336892001b6807
:1023a40000045b79b9589b050340124801400b4374
:1023b400bb508023db043b60fff72afb01226379d7
:1023c40013436371074b1d70fff722fbb088fff7bf
:1023d4008bfb00258ae7c046e80f0020004c004232
:1023e400040000205b100020024c004200e100e0e9
:1023f40004e100e0ffff00ff70b5094b03201d78e6
:10240400022d0bd10122074c1a70fff701fb237830
:10241400ab432370fff7fcfa0020607170bdc04627
:102424005b100020004c00420222074b997ac9b28b
:10243400114202d0987a02439a720122114202d0c8
:10244400997a0a439a727047004c0042f8b5fff734
:10245400dffa02221f4c237893432370fff7e4ff33
:10246400a08ba18b1c4c1d4a238812685b00d1529f
:102474001b4b80b21b78012b02d0022b10d0f8bd6d
:10248400238801332380fff70ffb002805d1208820
:10249400fff72afb04232372f1e7e3689847eee78a
:1024a4000f22104b25881e68e9007368002759180d
:1024b4004b791a408b799a4201d29b1adfb20621da
:1024c400f8406943b3685b18588002232372236978
:1024d400e4e7c046004c0042e80f0020080000205a
:1024e4005b1000200400002070b5fff791fa02226f
:1024f4000025064c237893432370fff789fae5827d
:10250400fff786fa024ba5821d7270bd004c004293
:0c251400e80f00202420704713207047bf
:020000040000fa
:102520000104060a0d11151a1f252b323a434d5787
:1025300063717f90a2b6cc000506070708090a0b55
:102540000c0d0f111314161a1c1f23262a2f3400ea
:1025500000100c2996411d59276f4183039510a443
:1025600018b0dfb835be00c035bedfb818b010a453
:1025700003954183276f1d5996410c2900100000d7
:10258000000800080008000800080008000800080b
:1025900000080008000800080008000800080008fb
:1025a0000008000800080008000800080008fb07f1
:1025b000d5078a071a078906d9050c0528043003b0
:1025c000290217010000e9fed7fdd0fcd8fbf4fa80
:1025d00027fa77f9e6f876f82bf805f8ed075607ad
:1025e00035069d04ae028c005ffe52fc8afa2af981
:1025f0004cf800f84cf82af98afa52fc5ffe8c007d
:10260000ae029d0435065607ed07d5078906280456
:102610001701d7fdf4fae6f805f876f827fad0fcaa
:1026200000003003d9058a07fb071a070c052902a9
:10263000e9fed8fb77f92bf8b4077605a10152fd26
:10264000cbf913f8aaf863fb74ffae03d6060008b3
:10265000d606ae0374ff63fbaaf813f8cbf952fd5c
:10266000a1017605b4078a072804e9fe27fa05f8d0
:1026700077f9d7fd30031a07d5070c050000f4fae7
:102680002bf8e6f8d0fc29028906fb07d9051701cb
:10269000d8fb76f85607ae0252fc4cf82af95ffeda
:1026a0009d04ed0735068c008afa00f88afa8c0042
:1026b0003506ed079d045ffe2af94cf852fcae0288
:1026c00056071a07170127fa2bf8d0fc2804fb0736
:1026d0000c05d7fd76f877f9000089068a072902ec
:1026e000f4fa05f8d8fb3003d507d905e9fee6f87a
:1026f000d60674ffaaf8cbf9a101b407760552fdfe
:1027000013f863fbae030008ae0363fb13f852fd3e
:102710007605b407a101cbf9aaf874ffd60689069d
:10272000d7fd05f8d0fcd9051a07e9fe2bf8d8fb30
:102730000c058a07000076f8f4fa2804d50717017b
:10274000e6f827fa3003fb07290277f9350652fc31
:102750004cf88c00ed07ae022af98afa9d04560760
:102760005ffe00f85ffe56079d048afa2af9ae0262
:10277000ed078c004cf852fc3506d905f4fa77f9d0
:1027800028041a07d0fc76f82902d507e9fe05f8d7
:102790000000fb0717012bf8d7fd8a073003e6f886
:1027a000d8fb89060c0527fa7605cbf963fbd6061c
:1027b000ae03aaf852fdb407a10113f874ff000894
:1027c00074ff13f8a101b40752fdaaf8ae03d606b0
:1027d00063fbcbf976050c05e6f8d7fdfb07e9feb0
:1027e00076f82804d90577f9d0fcd50700002bf836
:1027f0003003890627fad8fb8a07170105f8290252
:102800001a07f4fa9d044cf88c0056078afa52fc19
:10281000ed075ffe2af93506ae0200f8ae02350676
:102820002af95ffeed0752fc8afa56078c004cf835
:102830009d04280405f830030c052bf82902d9055e
:1028400076f817018906e6f800001a0777f9e9fe1d
:102850008a0727fad7fdd507f4fad0fcfb07d8fb87
:10286000ae0313f87605a101aaf8d60674ffcbf9da
:10287000b40752fd63fb000863fb52fdb407cbf9bc
:1028800074ffd606aaf8a101760513f8ae0330034b
:1028900076f81a07d7fdd8fbd50777f917010c058d
:1028a00005f8d905000027fafb07f4fae9fe8906c6
:1028b0002bf828042902e6f88a07d0fcae022af990
:1028c000ed078afa8c009d044cf8560752fc5ffe17
:1028d000350600f835065ffe52fc56074cf89d049d
:1028e0008c008afaed072af9ae02290227fad507e9
:1028f00076f80c05e9fed0fc890605f81a07d8fb26
:1029000000002804e6f8fb0777f930031701f4fa12
:102910008a072bf8d905d7fda10163fbd60613f86a
:10292000b407cbf9ae0374ff52fd7605aaf8000890
:10293000aaf8760552fd74ffae03cbf9b40713f87d
:10294000d60663fba1011701d0fc0c0577f98a07b5
:1029500005f8d507e6f8d905d8fb29020000d7fd10
:10296000280427fa1a072bf8fb0776f88906f4fae9
:102970003003e9fe8c005ffeae0252fc9d048afa31
:1029800035062af956074cf8ed0700f8ed074cf824
:1029900056072af935068afa9d0452fcae025ffefc
:1029a0008c0000006402d708070f060b4b05fa04e1
:1029b000b50ac50f6f0a48054b003b009105b80ae0
:1029c000b50f760bc7063b028a043909c50dd10d38
:1029d0008609590548012f027a06a70ab80e510d3b
:1029e0007509b0050202af028b06500afe0d6b0e90
:1029f000e80a79071e04d500950118058708e20b3f
:102a00002b0f9d0d760a60075904600163028a0549
:102a1000a008a70ba00e770e9b0bcc080a06550347
:102a2000ac00890165043407f609ab0c540f0e0e97
:102a30007b0bf308760603049901f20185040d0768
:102a40008a09fd0b670e3a0fe30c950a500814062d
:102a5000df03b301c6001d036b05b007ec09210cb1
:102a60004d0e8e0f710d5b0b4c0945074405490354
:102a7000550172008f02a504b406bb08bc0ab70c4e
:102a8000ab0e670f800d9e0bc209ec071b065004ae
:102a90008a02c9009900800262043e061408e50912
:102aa000b00b760d370f0d0f570da50bf7094f081b
:102ab000ab060b056f03d8014500f300a9025b04c8
:102ac0000906b1075509f50a910c280ebb0fb60e81
:102ad0002c0da50b210aa2082607ae053a04c9024f
:102ae0005b014a01d4025b04df055e07da08520a83
:102af000c60b370da50ef10f8a0e260dc50b680a01
:102b00000e09b60762061005c20376022d010f00fa
:102b10007601da023b049805f2064a089e09f00a9b
:102b20003e0c8a0dd30ee70fa30e620d240ce80aab
:102b3000ae09780843071106e104b4038902600175
:102b4000390019005d019e02dc0318055206880752
:102b5000bd08ef091f0b4c0c770da00ec70f150f0a
:102b6000f30dd30cb40b980a7e09660850073c0697
:102b70002a051a040c03ff01f400eb000d022d03db
:102b80004c04680582069a07b008c409d60ae60b09
:102b9000f40c010e0c0feb0fe40edf0ddb0cd90b68
:102ba000d90ada09dd08e107e806ef05f9040304ac
:102bb00010031e022d013e0015001c0121022503f9
:102bc00027042705260623071f081809110a070be3
:102bd000fd0bf00ce20dd30ec20f500f630e780dfb
:102be0008f0ca70bc00ada09f60813083207510642
:102bf00072059504b803dd0203022a015200b000f9
:102c00009d01880271035904400526060a07ed0755
:102c1000ce08af098e0a6b0b480c230dfd0dd60ea6
:102c2000ae0f7c0fa60ed20dff0c2d0c5c0b8d0a87
:102c3000be09f008240858078e06c505fc043504b3
:102c40006e03a902e50121015f0084005a012e02f2
:102c50000103d303a404730542061007dc07a80888
:102c600072093b0a040bcb0b920c570d1b0edf0ea7
:102c7000a10f9d0fdd0e1d0e5f0da10ce40b280ba7
:102c80006d0ab309fa0841088a07d3061d066805cc
:102c9000b40400044e039c02eb013b018b00630073
:102ca0002301e301a1025f031c04d80493054d0630
:102cb0000607bf0776082d09e309980a4c0b000c9c
:102cc000b20c640d150ec50e750fdd0f2f0f820ea1
:102cd000d50d2a0d7f0cd50b2b0b830adb0933098d
:102ce0008d08e70742079e06fa055705b40413044a
:102cf0007103d10231029201f40056002300d10089
:102d00007e012b02d60281032b04d5047d05250606
:102d1000cd0673071908be086209060aa90a4c0bfa
:102d2000ed0b8f0c2f0dcf0d6e0e0c0faa0fb90fe0
:102d30001c0f800ee50d4a0db00c160c7d0be50a3c
:102d40004d0ab6091f098908f3075f07ca06360648
:102d5000a30510057e04ed035c03cb023b02ab012f
:102d60001c018e00000004000e001c002e00430019
:102d70005b0077009500b600d900ff0028015301e1
:102d80008001b001e20116024c028402be02fb0285
:102d900039037903bb03fe0344048b04d4041f05e9
:102da0006b05b90509065a06ac0600075607ad07bc
:102db00005085f08ba0817097509d409340a950a85
:102dc000f80a5c0bc00b260c8d0cf60c5f0dc90dc0
:102dd000340ea00e0c0f7a0fe90f5810c8103911dd
:102de000ab111d12901204137813ed136214d81452
:102df0004f15c6153e16b5162e17a7172018991889
:102e000013198d19071a811afc1a771bf21b6d1cf6
:102e1000e81c631ddf1d5a1ed51e501fcc1f472006
:102e2000c2203c21b7213122ac2226239f23192422
:102e300092240b258325fb257326ea266127d727b5
:102e40004d28c2283629aa291e2a902a032b742b22
:102e5000e52b552cc42c332da02d0d2e792ee42ed0
:102e60004f2fb82f21308830ef305531b9311d3216
:102e70008032e1324233a133ff335d34b93413354c
:102e80006d35c6351d367336c7361b376d37be37c1
:102e90000e385c38a938f4383e398739ce39143abf
:102ea000593a9c3add3a1d3b5c3b993bd53b0f3c84
:102eb000473c7e3cb43ce83c1a3d4b3d7a3da83d46
:102ec000d33dfe3d263e4d3e733e973eb93ed93e34
:102ed000f83e153f303f4a3f623f783f8d3fa03f6d
:102ee000b13fc13fce3fdb3fe53fee3ff43ffa3f0e
:042ef000fd3fff3f64
:020000040000fa
:102ef40000005c00b6000f016601bd01120265020c
:102f0400b8020a035a03a903f80345049104dc0434
:102f140027057005b905000647068d06d206160773
:102f24005a079d07df0720086108a008e0081e096a
:102f34005c099909d609120a4d0a880ac20afc0ad0
:102f4400350b6e0ba60bdd0b140c4a0c800cb60c67
:102f5400eb0c1f0d540d870dba0ded0d1f0e510e08
:102f6400830eb40ee40e150f440f740fa30fd20f8b
:102f7400b1b1b0b0afafaeaeadadacacacababaa73
:102f8400aaa9a9a8a8a7a7a6a6a5a5a4a4a3a3a2dd
:102f9400a2a1a1a1a0a09f9f9e9e9d9d9c9c9b9b46
:102fa4009b9a9a99999898979797969695959494a9
:102fb400939393929291919090908f8f8e8e8d8d0a
:102fc4008d8c8c8b8b8a8a8a898988888887878666
:102fd40086868585848483838382828181818080bf
:102fe400807f7f7e7e7e7d7d7c7c7c7b7b7b7a7a12
:102ff4007979797878777777767676757575747464
:103004007373737272727171717070706f6f6e6eb0
:103014006e6d6d6d6c6c6c6b6b6b6a6a6a696969f9
:10302400686868676767666666656565646464633f
:103034006363626262616161606060605f5f5f5e82
:103044005e5e5d5d5d5c5c5c5c5b5b5b5a5a5a59c1
:1030540059595958585857575757565656555555fc
:103064005554545453535353525252525151515034
:103074005050504f4f4f4f4e4e4e4e4d4d4d4d4c68
:103084004c4c4b4b4b4b4a4a4a4a4949494948489c
:1030940048484747474747464646464545454544c9
:1030a40044444443434343434242424241414141f5
:1030b40040404040403f3f3f3f3f3e3e3e3e3d3d1f
:1030c4003d3d3d3c3c3c3c3c3b3b3b3b3b3a3a3a44
:1030d4003a3a393939393938383838383737373767
:1030e400373636363636353535353534343434348a
:1030f40034333333333332323232323231313131a9
:1031040031313030303030302f2f2f2f2f2f2e2ec3
:103114002e2e2e2e2d2d2d2d2d2d2c2c2c2c2c2cdd
:103124002b2b2b2b2b2b2b2a2a2a2a2a2a292929f7
:10313400292929292828282828282827272727270c
:103144002727262626262626262525252525252520
:103154002524242424242424232323232323232332
:103164002222222222222222212121212121212143
:103174002020202020202020201f1f1f1f1f1f1f52
:103184001f1f1e1e1e1e1e1e1e1e1e1d1d1d1d1d5e
:103194001d1d1d1d1c1c1c1c1c1c1c1c1c1c1b1b69
:1031a4001b1b1b1b1b1b1b1b1a1a1a1a1a1a1a1a73
:1031b4001a1a19191919191919191919191818187c
:1031c4001818181818181818171717171717171783
:1031d4001717171716161616161616161616161687
:1031e400151515151515151515151515151414148e
:1031f4001414141414141414141413131313131391
:103204001313131313131313121212121212121292
:103214001212121212121211111111111111111193
:103224001111111111111010101010101010101094
:10323400101010101010100f0f0f0f0f0f0f0f0f93
:103244000f0f0f0f0f0f0f0f0e0e0e0e0e0e0e0e92
:103254000e0e0e0e0e0e0e0e0e0e0e0d0d0d0d0d8f
:103264000d0d0d0d0d0d0d0d0d0d0d0d0d0d0d0c8b
:103274000c0c0c0c0c0c0c0c0c0c0c0c0c0c0c0c8a
:103284000c0c0c0c0c0b0b0b0b0b0b0b0b0b0b0b85
:103294000b0b0b0b0b0b0b0b0b0b0b0b0b0a0a0a7d
:1032a4000a0a0a0a0a0a0a0a0a0a0a0a0a0a0a0a7a
:1032b4000a0a0a0a0a0a0a09090909090909090973
:1032c400090909090909090909090909090909096a
:1032d4000909090908080808080808080808080866
:1032e400080808080808080808080808080808085a
:1032f4000808080807070707070707070707070756
:103304000707070707070707070707070707070749
:10331400070707070707070707070606060606063f
:103324000606060606060606060606060606060639
:103334000606060606060606060606060606060629
:103344000606060606050505050505050505050524
:103354000505050505050505050505050505050519
:103364000505050505050505050505050505050509
:103374000505050505050505050404040404040400
:1033840004040404040404040404040404040404f9
:1033940004040404040404040404040404040404e9
:1033a40004040404040404040404040404040404d9
:1033b40004040404040404040404030303030303cf
:1033c40003030303030303030303030303030303c9
:1033d40003030303030303030303030303030303b9
:1033e40003030303030303030303030303030303a9
:1033f4000303030303030303030303030303030399
:103404000303030303030303030303030303030388
:103414000202020202020202020202020202020288
:103424000202020202020202020202020202020278
:103434000202020202020202020202020202020268
:103444000202020202020202020202020202020258
:103454000202020202020202020202020202020248
:103464000202020202020202020202020202020238
:103474000202020202020202020202020202020228
:103484000202020202020202020202020202020218
:103494000202020201010101010101010101010114
:1034a4000101010101010101010101010101010108
:1034b40001010101010101010101010101010101f8
:1034c40001010101010101010101010101010101e8
:1034d40001010101010101010101010101010101d8
:1034e40001010101010101010101010101010101c8
:1034f40001010101010101010101010101010101b8
:1035040001010101010101010101010101010101a7
:103514000101010101010101010101010101010197
:103524000101010101010101010101010101010187
:103534000101010101010101010101010101010177
:103544000101010101010101010101010101010167
:103554000101010101010101010101010101010157
:103564000101010101010101010101010101010147
:103574000101010101010101010101010101010137
:103584000101010101010101010101010101010127
:103594000101010101010101010101010101010117
:1035a4000101010101010101010101010100c04604
:020000040000fa
:1035b400b40f00201c00000000000000fc0f0020dd
:1035c4000c000000000000005c0f00203000000030
:1035d4000000000050100020040000000000000063
:1035e4005810002001000000000000000810002016
:1035f4001800000000000000d00f00201800000098
:10360400000000002c100020080000000000000052
:103614005910002001000000000000003c100020b0
:1036240004000000000000005a1000200100000007
:10363400000000004414002003000000010000000a
:103644000001020030140020060000000100000008
:103654000200803000030000d0130020100000009e
:103664000100000000002000000004000000100021
:1036740000000400101400200c00000001000000f1
:1036840030140020d013002014100020381400201f
:1036940006000000010000001401001401000000f5
:1036a4001c1400200a0000000100000002000400b5
:1036b4000500140514010000e013002020000000a0
:1036c400010000002c1000201c140020d00f00204a
:1036d4003814002002000300341400204414002095
:1036e4000119060028140020080000000100000051
:1036f40000140020f013002000140020100000002b
:103704000100000000000000081000201410002038
:10371400501000205b100020010000000100000098
:1037240001000000e80f0020140000000000000069
:10373400000000200c0000000000000054100020d5
:103744000200000000000000881300202800000090
:1037540001000000010000000c0400204c040020c3
:103764004c040020d67c9b52cfcc4f80a3100d3e3e
:103774004ac15b2f010000000c000020800c0020d7
:1037840094010000000000000c0000205004000020
:10379400000000005c100020300100000100000067
:1037a4005c0400200a0000008c0f00200a000000c6
:1037b40000000000202691bf19268440010000006b
:1037c4000f506e3a7b148e3f020000001dfaccbfee
:1037d4005cdb704103000000000000000000ea41cf
:1037e4000400000000a0fc43007005440500000034
:1037f4000080044400400f44060000000020ba3d4d
:103804005017bd410700000000c0774400a0874462
:103814000a00000000e2e4c6000e7b47110000002d
:1038240080a681c700fea6461700000000da36c74e
:10383400000000001a0000000040eac500243f46d2
:103844001d00000000c417c6007069451f00000079
:103854000000000000c0194420000000f6dc5c43b6
:10386400bcf97643210000006a1c3e434967554376
:1038740026000000de8d27416cf5b14127000000d1
:103884008e676a414462eb41280000003c415d417f
:103894003f17bf4129000000000000413d419d4108
:1038a4002c000000b5c367419802f1412d000000cf
:1038b400b96f7b41fcd6e4413000000000000000f9
:1038c40000003e4331000000000000000080c543ba
:1038d4008c0f002028000000000000005c04002081
:1038e4001400000000000000140e0020f800000086
:1038f400000000007004002004000000000000002c
:103904008c110020300100000100000000000a00ba
:1039140018000a0004010100cc110020a4110020a9
:1039240000000000c8000300c8000200c800010035
:10393400c8000300c8000200c80003005e000100c4
:10394400c80003009b000300c8000300fe11fe0032
:103954003cb12fd900ff4d00000a4a54f237326db2
:1039640020bc00004b1a068fb5239f8d4fc0ff600b
:10397400b84083ab9161654180557f64ec0ede08ed
:1039840045532fad4fc0ff60b80c83ab91616541c7
:1039940080552800fe06fe003c581fb34fc0ff6050
:1039a400b80a4a54f237326d20bc2100824938509b
:1039b40021355c7c4fc0ff60b80c4a54f237326d3d
:1039c40020bc2840be117808452f33a04fc0ff60ab
:1039d400b80e83ab9161654180552e00d417ae11aa
:1039e4004e7c3fc34fc0ff60b80c4a54f237326d6f
:1039f40020bc2800ef0ee2003cab39d94fc0ff6079
:103a0400b80c4a54f237326d20bc2800a72158085c
:103a14003c5347ad4fc0ff60b80c4a54f237326d87
:103a240020bc2800cc189c08455e3ab54fc0ff6006
:103a3400b80c4a54f237326d20bc280056100020ce
:103a440002000000000000007c08002004040000c4
:103a540000000000401000200800000000000000ea
:103a64000c0f00205000000000000000bc120020d9
:103a74006c00000001000000c8120020c4120020e5
:103a8400c812002000000000250000007c04002073
:103a9400000400000000000000000000000000001e
:103aa4000000000000000000000000000000000012
:103ab400000000006fb500000000000000000000de
:103ac4000000000000000000899e000000000000cb
:103ad40000000000000000000000000000000000e2
:103ae400000000007404002008040000000000002e
:103af400b0130020200000000100000001000000bd
:103b040003000000000000000000000000000000ae
:103b140000000000000000003410002034100020d9
:103b2400080000000000000048100020040000000d
:103b340000000000281300206000000001000000c5
:103b4400010000000300000000000000000000006d
:103b5400000000000000000000000000cda00000f4
:103b64000000000000000000000000002db500006f
:103b7400b39f0000000000000000000000000000ef
:103b84000000000000000000000000000000000031
:103b94000000000000000000000000000000000021
:103ba4004014002004000000010000000100000097
:103bb4004c10002004000000000000002010002031
:103bc4000c000000000000000000000000000000e5
:020000040000fa
:103bd400f0b59bb013930b6815900a938b680d9105
:103be4000b930b694d681893cb6802931368089381
:103bf40053680898069300220023069906f056fe9f
:103c040000280dd10a9b5b073bd408200a9b034084
:103c140009930b9b0393099b002b0fd0202306e0f1
:103c2400802212069446069b634406932d23029a2f
:103c340013700b9b013b039301230993069b089983
:103c44005b005b08924a00291dd193421bd1029963
:103c5400139b8c46099a413b624410008d49192bf1
:103c640000d98d4907f05afc029807f035fb0a9bee
:103c74000200009302990b9b159805f040ff1bb0be
:103c8400f0bd2b23d3e7934203d80ed1089b002b1e
:103c94000bd00299139b8c46099a413b6244100055
:103ca4007e49192bded97e49dce7002200230898df
:103cb400069907f039f800267a4f002400283ed1ef
:103cc400040002e00134049e059f0022764b30007c
:103cd400390003f077ff089a069b0490059106f0db
:103ce40023fe0028eed00023049320e06f4b9c4277
:103cf40014da049b002b11d100226d4b089806990d
:103d040003f060ff6a4b08900691300039000022ee
:103d140003f058ff012306000f000493300039001c
:103d24000022614b04f070ff06000f00013c3200da
:103d34003b000898069906f0b9fd0028d6d11398df
:103d440007f0c0fbc3b20c93002d00da94e1049396
:103d5400672b00d0b2e0002d00d189e1231d02dbe6
:103d6400ac4200daa6e06523b6e0002200230e92fe
:103d74000f9303e106960797049b2600652b00d05a
:103d84001ae1002618e1129b002b0bd1002e09da50
:103d9400029a14992e335354039b0137013b039326
:103da40001231293ea193b009446302102e0029a5f
:103db400d15401339c45fad1039aeb19551b029a4d
:103dc40030305f1cd0546b1e0393002521e00d9b03
:103dd40014971b691093053bbb4200d8f5e0069a83
:103de400079b08980e9904f00fff05f083f81090d4
:103df400119106f0b7fe092800dd092010230a9a64
:103e040013400343bfd10c9b672bbcd1002ec9daee
:103e140001358020000684460e99089a61440b00ff
:103e24001098119900920193069a079b07f042fba0
:103e340080231b06cb1808900e930698079900223e
:103e4400194b04f0e1fe013e06900791b9e00a9b8c
:103e5400db0600d4bde02e23029ad3550137b8e027
:103e640020000a2105f044f9029b3031013d5955e7
:103e740020000a2105f0f2f8039b0400013b0393a0
:103e8400b7e0029b03991a5c5b181a540138e0e00e
:103e94000000f07fa8b40000acb40000b0b400008f
:103ea400b4b400000000f03f00002440d4feffff43
:103eb40000005043002c0eda66230493049b013562
:103ec400662b0ad1002c02da002600246d4f0c9bcd
:103ed400672b00d02d1966230493089b0e960f9729
:103ee4001293069b1093002314930e9a0f9b12981f
:103ef400109904f089fe04f0fdff1690179106f066
:103f040031fe19908020000684461099129a61446b
:103f14000b0016981799009201930e9a0f9b07f0c5
:103f2400c9fa80231b06cb18129010930e980f9990
:103f3400554b002204f068fe149b0e900f91013340
:103f440014939d42d1d10022504b03f03bfe0e90be
:103f54000f9102000b001298109906f0a7fc00289c
:103f640000d002e70e9a0f9b1298109906f0dcfe1f
:103f7400002803d0199bdb0700d4f6e60e9a0f9baa
:103f84000898069903f03cfc002208900e913e4be1
:103f94003000390003f016fe089a0e9b0690079134
:103fa40006f080fb002800d1e4e6049b0134662b74
:103fb40000d0e1e626000135731b0025099f169306
:103fc4001295169b9e4200d001e7129b002b00d154
:103fd4003de70026029bdb1906931e70049b652bac
:103fe4002ad1189b5d1e029b5e55b44201da6442dd
:103ff4000136002c00d033e7189beb1a0333002b57
:1040040000dd2de76a1e2d23002e00d1023b02990c
:10401400023d8b54139b413b192b01d84523049338
:10402400029b5919049b0b70039b023b0393af4201
:1040340002da069807f072fa03230a9a1340022b55
:1040440000d011e6039b002b00dc0de6029807f07c
:1040540043f9099b834200dc13e7029a302194461a
:1040640063441800039a07f0c7f900230b93fbe598
:10407400012573e6062571e60c9b672bfad00493a1
:1040840006251be70000f03f000024400000144018
:020000040000fa
:10409400f0b5002915dd002500277a04d21b520152
:1040a400d21952010023c65ed31b9b00db1bf40311
:1040b400db00e418241401350480370002308d42fb
:1040c400ebdbf0bdf0b5c825020000210023002081
:1040d4006d00164e00e0735e545e63439b131bb287
:1040e400dc1753521b196340984200da180002315e
:1040f400a942f0d10e4991320d008f3dff32ff3db0
:104104000c4b02e000240b5f02390026945f6343ea
:104114009b131bb2dc1713801b196340984200da0f
:10412400180002328d42edd1f0bdc046642d00006e
:10413400f02e0000ff3f0000f0b5de4657464e4625
:104144004546e0b54b008db00393514b0792591c83
:10415400089119218c469c4417330a930523614620
:1041640000220493043b1c00049b0b9009910692cb
:10417400002b00d182e00b9b20219c46069ba400cf
:104184005a009046434b0022984400230092019326
:10419400039a4942644499468c46130063449b46ff
:1041a40020239b1a05931ee033005a469340039a3a
:1041b400002196404246b60a10889a0516439b0a87
:1041c400320006f091fa009a019b12184b410092ba
:1041d400019301239c460133e1449c46049b04342f
:1041e400e0444b451fdd0023e05e0223e55ec1177a
:1041f400eb179a4602000b0006f076fa53460600c7
:104204000f002a002800514606f06efa5b46361865
:104214004f41002bc8da3b00039a059993403200c2
:10422400ca401343c3e7069a944663440693009b2b
:10423400019c20001d0005f0fff90400280005f092
:10424400fbf9154b0100e01805f0d8f9134b98421f
:1042540000da1800079b01c307930a9b1900089b07
:1042640099420ed0099a1c7811780133049108936d
:10427400531c0993049b002b00d07ce700250020ed
:10428400d9e70db03cbc90469946a246ab46f0bd7a
:1042940020250000a4290000e4620100e5bf00001d
:1042a4008446f0b5ce4647460300654680b501cb4b
:1042b4005c3510cb00199d42fbd1401003011b1a41
:1042c4009b001818c300181a80120860012a25dd03
:1042d40097239200904666469b0099460f1d11480d
:1042e4000439114a8844583604006146002503e025
:1042f4000023e25e043102340b685b105343ed1873
:104304008e42f5d14b46ed125d43ad123d60b8458a
:1043140004d02c23c25e04372e30e5e70cbc904653
:104324009946f0bdb0250000fb07000070b50029d8
:1043340015dd80220a4d89000400323546185201e9
:1043440001e02a88023523682068d917002306f083
:10435400cbf90905000b084301c4a642f1d170bd95
:1043640020250000f0b54f46d6464646c0b59246d5
:1043740098b006000f00994600240025002914dd9a
:104384000022835e62049c46121b520112195201e0
:10439400d903131b9b001b1bdb00cb181b1401351b
:1043a400038064460230bd42eadb3000fff78afe38
:1043b40006222d4b904606251a00002198420cdc5b
:1043c40001235b429c46e0444346e91a03008b40c8
:1043d400934202dc4346002bf2d1c8239b00f01821
:1043e4003500330000241a5f8a401a800233984251
:1043f400f8d154460022bc4204da63000134f2527c
:10440400bc42fadb300002f0fbfd010001aa41448a
:104414003000fff791fe4a46310001a8fff740ff44
:104424004b46002b14dd8022104c9f003234f719c8
:10443400520101e0228802342b682868d91700232e
:1044440006f052f90905000b084301c5af42f1d14a
:10445400074a336894466344336018b01cbc9046e2
:104464009946a246f0bdc046ff3f0000202500004b
:104474004d19fdfff0b5ce46474680b5060099b00c
:104484000d1e914616dd002400270022835e62047f
:104494009c46121b520112195201d903131b9b0093
:1044a4001b1bdb00cb181b1401370380644602304e
:1044b400af42eadb3000fff705fe204a904238dcc9
:1044c40006230627984601235b429c46e044434664
:1044d400f91a03008b40934202dc4346002bf2d1cd
:1044e400c8239b00f0183700330000241a5f8a4069
:1044f4001a8002339842f8d14c46ac4205da0022c5
:1045040063000134f252ac42fadb300002f078fd71
:10451400010001aa41443000fff70efe01ab18a9c7
:1045240004cb04c79942fbd119b00cbc9046994600
:10453400f0bd062300219846d2e7c046ff3f0000a5
:020000040000fa
:10454400f0b587b00090009b0b20002b00d1e2e176
:10455400002603275b68049602931b880196059343
:104564000396049b059a93421ed1009b1a68137804
:1045740059b200290bda0820002101268446049c44
:1045840088b2844200d9ffe07f210b401370039b63
:10459400002b00d009e1019801231178002800d1f3
:1045a4005be10b4313705ae1009bb5009b685d19f6
:1045b4001e236a681178194001d001232b702b78cf
:1045c400042b73d00ad8022b2ed043d8012b23d02e
:1045d400049b033601339bb20493c2e7852b00d1bd
:1045e40082e0862b00d1a9e0072bf1d129895388d9
:1045f40099425fd9c91a009b0298db6840799b5d98
:1046040089b20341dbb28b4254d86b78002b69d159
:1046140001232b701770dbe703930029d8d1022301
:104624002b7008236b70d3e76978002910d0528867
:10463400042904d92a810139697001237ce02b897a
:104644009342f8d002d9013b2b81f4e70133fbe715
:104654002f70bde7298953889942b9d0009ad2684e
:1046640010d9cb1a0299925d49799bb20a41d2b210
:104674009a42add8029b1b79002ba9d007222a703d
:104684006b70dae792195b1a11789bb299429fd842
:104694009378002b05d00499009805f0f3f90028cd
:1046a40096d104232b70029b9b78e9e729895388d0
:1046b400994202d92f700023b4e7009a5b1ad2689a
:1046c4009bb2921911789942f4d29378002b06d0b8
:1046d4000499009805f0d6f9002800d078e76b78a3
:1046e400002b47d0013bcbe7029b00991b7a09685a
:1046f4000b7128895388984207d986232b70029b13
:104704009b786b700123019316e0009a1b1ad26800
:104714009bb291190a784978140001310c410121a6
:10472400121bd2b201919a4200d251e786232b7018
:10473400029b9b786b700b00039349e7288953888d
:10474400984209d96b78002b01d12f7001e0013b0d
:104754006b70012301933be7009a1b1ad2689bb24a
:1047640091190a784978140001310c41121bd2b214
:104774009a4204d285232b70029bdb78e8e76b789e
:10478400002be2d0013bbce70c2500984d43806828
:1047940045196f683878304205d164462d78a543b1
:1047a40001d0304338700131e9e6029b597a00297f
:1047b40000d1f0e6802310785b4203431370012993
:1047c40000d0e8e600218bb20393049b88b28342b5
:1047d40000d8e0e60c20009b48439b680825181885
:1047e400029303781c00ac4315d0852b01d0032b16
:1047f4002ed10325009bdf682b004b43fb189b78cd
:104804009c46002b07d000231e000595049c9c4267
:1048140008d8002e1cd1012540680378ab430370ef
:104824000131d0e7039c9c420fd00c255d43029cd0
:104834002d5d042d01d0862d07d1059d5d437d1985
:10484400ad78654501d10126049b01339bb2dde7b8
:104854000123406805782b43e1e79943117052889e
:10486400584b11001b88c8318b4251d99b1a9bb2fb
:104874009c466346c82b4dd96346c83b9bb29c46b5
:10488400009b1b685a88c8325a801a79002a00d0c3
:1048940070e05a79002a01d0013a5a719a79002ab3
:1048a40001d0013a9a71009a50688679002e07d097
:1048b4005a79002a04d1078891b28f4234d85e71a4
:1048c400c579002d07d09a79002a04d1068891b2bf
:1048d400b1423cd39d71009b5b68da78002ac8d052
:1048e4001f880c23002103207b4302938bb2bb421d
:1048f400bfd20c22009b4a439b689a181578852dd9
:1049040004d15578002d38d0013d55700131ede7c3
:10491400934202d3002007b0f0bd2b495918891add
:10492400c829f7d9013ba1e70c21009c5143a46895
:1049340061180d78032d01d0082d06d14c680d891e
:104944006488ac4201d901350d810132b4e70c21f0
:1049540000985143806841180878032801d008283a
:1049640006d14c6808896788874201d201380881da
:104974000132ace7013a1a71ade701240500147065
:1049840052684d431070009ad2685519ad78002dc5
:10499400bcd0029c02321c1901920394039a9342e4
:1049a400b4d0019a1678ae4206d101225e683478fa
:1049b400144201d01a703070019a0c330332019200
:0c49c400ece7c04654100020ffff00008c
:020000040000fa
:1049d000f0b599b014930b68566809934b6813901f
:1049e0000d938b68cf680c930b693100119313689a
:1049f000002208930898002305f05aff00280cd1e4
:104a0000099b5b0724d40820099b0c9d0340059358
:104a10000cd02023013d3b7006e080231b06f618d6
:104a20002d233b700c9b5d1e01230593089a730098
:104a30005b08002a0ed1ac4a93420bd1149b059a15
:104a4000413bb818a94caa49192b12d9210010e0f2
:104a50002b23e6e7a44a934203d819d1089b002be5
:104a600016d0149b059a413bb818a24ca249192ba9
:104a7000ecd806f055fd200006f030fc099b020042
:104a8000009339000c9b139805f03bf819b0f0bd6a
:104a9000059b05995a1c30237b54149b413b0e9374
:104aa0000e995823192900d920330599bb54023196
:104ab000ab1e05910793002200230898310006f0f1
:104ac00035f9002800d165e100238c4c0693029350
:104ad00003940d9b1093002b01da18231093029b73
:104ae000039c0a930b9434000023089d1293280022
:104af0000a9a0b9b210004f089f804f0fdf90a9a48
:104b00000b9b1690179103f05ff802000b00280032
:104b1000210006f0b1fc7a4b05000c000a980b99b5
:104b2000002203f051f8129b0a900b9101330f936e
:104b30000d9b002b07da002200232800210006f03d
:104b4000f5f8002806d1109b129a934200dd27e168
:104b500001330f9300220a980b996a4b03f034f843
:104b60000a900b9102000b002800210005f0a0fe26
:104b7000002800d016e10a9a0b9b2800210006f0bd
:104b8000d5f8002806d01698179905f0edffc30751
:104b900000d407e10a9a0b9b0898310002f032fe1c
:104ba000129149000a904908002803d14e4b9942be
:104bb00000d143e70025059c10950895119b260020
:104bc000053ba34230d9029a039b0a98129904f03c
:104bd0001df804f091f91490159105f0c5ff031e1e
:104be00000d0e4e0089a002a00d1e0e00135029a02
:104bf000039b1498159902f0e7ff02000b000a9836
:104c0000129906f039fc00220a9012913c4b02984e
:104c1000039902f0d9ff089b029003910133089396
:104c2000089a0f9b9342c9d1109b002b1ad1002ddb
:104c300000d100e10d9b002b00dcfce0099bdb07b1
:104c400000d5f8e02e2230213b191a702a19ba1823
:104c5000597001339a42fbd12c19ed43079b013463
:104c6000eb18079300263b191e700293119b5d1ee3
:104c7000069b7e55b34202da5b4206930136069be1
:104c8000002b00d0c0e0119beb1a013300d1bbe038
:104c90006a1e2d23002e00d1023bbb540e9a023d0a
:104ca0005023192a00d9203379190b70ac4202da4b
:104cb000029806f035fc0323099a1340022b11d108
:104cc000079b9c1e002c0ddd380006f007fb059ba2
:104cd000984200dba8e0f8182200302106f08efb95
:104ce00000230c933800c7e60000f07f9cb400005e
:104cf00098b40000a4b40000a0b400000000f03f8d
:104d00000000b03f00002040069b02940395013351
:104d10000693029a039b1000190002f073fd040031
:104d20000d0002000b000898310005f0c1fd0028bd
:104d3000ead0029a039b0898310005f0b9fd0028db
:104d400000d1c6e60298039900223f4b02f03cffd7
:104d50000022002305f0eaff00280fd002980399f3
:104d600000223a4b02f030ff002202900391374bb1
:104d70000898310002f028ff0e000890324b02988c
:104d80000399002202f020ff069b02900391013b51
:104d90000693cee700232e4c069002930394b8e7c7
:104da0000f9ba3e6002300240a930b94f2e6109acb
:104db000002a0ad1089a002a07d02e22ba55079a4b
:104dc0000134013a0792012210922e19302201e09b
:104dd0003a550134b442fbd11800079a5730551b9d
:104de000092b01dc303318000e9b192b06d8202329
:104df0000343613b192b01d806f06dfb6b1e741c3d
:104e0000b85507930025f2e606980a2104f072f9d6
:104e1000013d3031795506980a2104f021f9079bac
:104e20000690013b07932ae7079b3a5c023bfb187d
:104e30001a5401384be7099bdb0600d412e72e23f6
:104e40003b5501340ee7c0460000e03f00005043f0
:044e50000000f03f2f
:020000040000fa
:104e5400f0b557464e46de4645460c00e0b51f0009
:104e640003008db002900391160000930194002872
:104e740000d13fe134003d00a4197d4121002a0006
:104e8400c64bb146ba4604910592ab4200d32ee11b
:104e9400009c019d20002900001969418346884631
:104ea40099422ed9be4b994230d9019bbd4a5b0031
:104eb4005b0d013b934200d9e2e07b005b0d013bbb
:104ec400934200d9dce03000390005f04bfe804607
:104ed40006f076f9814500d19be0029803990022ff
:104ee400002305f0e3fc002800d180e00024ae4d4f
:104ef400200029000db03cbc90469946a246ab4622
:104f0400f0bd002f02da2222a84b1a60019b002b6d
:104f1400cbdaa34b059a9342c7d3a54a7b009446a8
:104f24005b0d6344332b00d9eae03422d21a944651
:104f3400203a099200d555e10021002206910792fa
:104f44000122099952428a40079201226146524243
:104f54008a400692069c079d2000290080220019a1
:104f64006941340052033a438a4309998443250032
:104f7400002900da2ae11000c8400a9060461100b6
:104f8400c14020200b91190040420c1800d5fde0cf
:104f94002a00a24011002a009a401000001849413a
:104fa4000a9b0b9a03430a93069b079c1d0023004c
:104fb4003b400a43190080233540d2022800d20a1c
:104fc4005b039a4205d800d0aee00a9b002b00d1c7
:104fd400aae0099c002c00da15e10125a5402b006c
:104fe40001246546ac402200801859419ce0009b96
:104ff400019c18006300590802f014fb02000b0026
:105004003000390002f0defd02f006f904000d0064
:105014006ee78a4500d060e780231b06984500d1df
:105024005be74346002b00daace00027002b5ed0a0
:105034003b0000244746012698465e4d3e4207d079
:10504400029a039b2000290002f0bcfd04000d001d
:105054007f080cd14746002f00d149e722002b00de
:105064000020544903f0d0fd04000d0040e70298ed
:10507400039902000b0002f0a5fd02900391dde705
:105084004d4b98452bd827d00499059a4a4b934207
:105094006fd36bd0414b984555d83000390005f09b
:1050a40061fd804606f08cf8814500d015e78a45fd
:1050b40000d012e75346002b00dae7e00022002478
:1050c40000254346db0700d412e7019b0024db0fd5
:1050d400db0753401d000be75b46002bd4d0029c3a
:1050e400039d05e7354b019a9a4200d099e00024cc
:1050f400304dfde62f4b019a9a4200d0bae6eee716
:1051040080223000d200390093420dd904980599c9
:1051140000222b4b121a8b41da17264b00201a401f
:10512400fb0fdb071a43110002000b0030003900ab
:1051340005f0fafd002800d0b7e621221b4b00241d
:105144001a60194dd4e6009b002b73d04b46002bfc
:1051540060d0019b1b4a5b005b08934200d892e03d
:10516400009b002b08d00024174dc1e6049b002ba4
:1051740090d034003d00bbe6104b019a9a42b6d061
:105184000024f1e75b429846012751e720212c00d7
:105194009a40c91acc4011002143fce6ffff1f00ce
:1051a400ffffdffffd0700000000f87f4410002030
:1051b40001fcffff0000f03f0000e0ff0000f0bf33
:1051c4000000c07fffffef3f0000f07f604620211a
:1051d400091a10008840010020006446e04008439a
:1051e4000a90cbe662462021891a0122524210001d
:1051f400c840010060468240002400250a4306940a
:1052040007950792a1e62023624601249b1adc40fd
:105214002300e5e6234b9a459bd1009b002b00d14c
:1052240060e7019b204a5b005b08002493429bd902
:1052340000255de61d4b019a9a421ed0194b9a42f5
:1052440084d15346002b25db0023164c174d0093c5
:10525400019400243000390005f084fc060005f0b8
:10526400afff814500d043e68a4500d040e6f3070e
:1052740000d43de6009c019d3ae653460024002bf1
:10528400d6db0a4d34e60024002531e6074a002423
:10529400064d16e78024002324060093019400257c
:1052a4000024d7e70000f0ffffffef3f0000f07f8e
:020000040000fa
:1052b400008040c020a060e0109050d030b070f06a
:1052c400088848c828a868e8189858d838b878f8da
:1052d400048444c424a464e4149454d434b474f40a
:1052e4000c8c4ccc2cac6cec1c9c5cdc3cbc7cfc7a
:1052f400028242c222a262e2129252d232b272f20a
:105304000a8a4aca2aaa6aea1a9a5ada3aba7afa79
:10531400068646c626a666e6169656d636b676f6a9
:105324000e8e4ece2eae6eee1e9e5ede3ebe7efe19
:10533400018141c121a161e1119151d131b171f1d9
:10534400098949c929a969e9199959d939b979f949
:10535400058545c525a565e5159555d535b575f579
:105364000d8d4dcd2dad6ded1d9d5ddd3dbd7dfde9
:10537400038343c323a363e3139353d333b373f379
:105384000b8b4bcb2bab6beb1b9b5bdb3bbb7bfbe9
:10539400078747c727a767e7179757d737b777f719
:1053a4000f8f4fcf2faf6fef1f9f5fdf3fbf7fff89
:1053b400000092012403b6044706d9076a09fb0ad0
:1053c4008b0c1b0eab0f3911c7125514e1156d1759
:1053d400f818821a0b1c931d191f9f202322a62341
:1053e4002725a7262628a3291e2b982c102e862f86
:1053f400fb306d32de334d35b93624388c39f23a10
:10540400563cb73d163f7340cd4125437a44cc45c5
:105414001c476948b349fa4a3f4c804dbf4efa4f86
:10542400335168529a53c954f4551d57425863591d
:10543400815a9c5bb35cc65dd65ee25feb60f06153
:10544400f162ee63e764dd65ce66bc67a5688b69cf
:105454006c6a4a6b236cf86cc96d956e5e6f227032
:10546400e1709d7154720673b5735e740375a4750f
:105474004076d8766b77f977837808798979047ad6
:105484007c7aee7a5c7bc47b297c887ce27c387de8
:10549400897dd57d1c7e5e7e9c7ed47e087f377f91
:1054a400617f867fa67fc17fd77fe87ff57ffc7f02
:1054b400ff7ffc7ff57fe87fd77fc17fa67f867f54
:1054c400617f377f087fd47e9c7e5e7e1c7ed57d87
:1054d400897d387de27c887c297cc47b5c7bee7a88
:1054e4007c7a047a897908798378f9776b77d87626
:1054f4004076a47503755e74b573067354729d711a
:10550400e17022705e6f956ec96df86c236c4a6b06
:105514006c6a8b69a568bc67ce66dd65e764ee637b
:10552400f162f061eb60e25fd65ec65db35c9c5bea
:10553400815a635942581d57f455c9549a536852b5
:105544003351fa4fbf4e804d3f4cfa4ab349694834
:105554001c47cc457a442543cd417340163fb73da3
:10556400563cf23a8c392438b9364d35de336d3237
:10557400fb30862f102e982c1e2ba3292628a72615
:105584002725a62323229f20191f931d0b1c821a53
:10559400f8186d17e1155514c7123911ab0f1b0e0e
:1055a4008b0cfb0a6a09d9074706b6042403920147
:1055b40000006efedcfc4afbb9f927f896f605f507
:1055c40075f3e5f155f0c7ee39edabeb1fea93e85f
:1055d40008e77ee5f5e36de2e7e061dfdddd5adc57
:1055e400d9da59d9dad75dd6e2d468d3f0d17ad0f2
:1055f40005cf93cd22ccb3ca47c9dcc774c60ec548
:10560400aac349c2eac08dbf33bedbbc86bb34ba71
:10561400e4b897b74db606b5c1b380b241b106b090
:10562400cdae98ad66ac37ab0caae3a8bea79da6d9
:105634007fa564a44da33aa22aa11ea0159f109e83
:105644000f9d129c199b239a329944985b977596e7
:105654009495b694dd93089337926b91a290de8f64
:105664001f8f638eac8dfa8c4b8ca28bfd8a5c8a67
:10567400c0892889958807887d87f8867786fc8580
:1056840084851285a4843c84d78378831e83c8824e
:1056940077822b82e481a28164812c81f880c98085
:1056a4009f807a805a803f80298018800b800480f4
:020000040000fa
:1056b400f0b545465746de464e46e0b587b05d0038
:1056c400169b0f0090460135002b00da2ee1022bc9
:1056d40000dc98e0062b00dd28e18146109b1e01ca
:1056e4006b100193139bb144012b00d13ce1fe23c9
:1056f4009b050593002d00dca4e1bbb2ba4600264d
:105704002f0000241d00291989b2484601f058f8d9
:1057140001343618bc42f6d13d005746149b012b88
:1057240000d15ee1129b002b00d027e134004346f8
:1057340000225b1b9346002b00dc41e1bab20492c9
:10574400013a92b20133924603932b00521992b25a
:105754004d460292d1460127a0469a4608e0129b84
:10576400b044002b00d01de1039b01379f422cd095
:105774004b46bcb2e11889b2280001f021f8029b23
:10578400361ae11889b2280001f01af8149b861918
:10579400012be4d1f217b31853409844129b002b09
:1057a400e2d0019a049b94466344e11889b228002c
:1057b40001f006f853465843801bc317c0185840dd
:1057c4008344039b01379f42d2d1504605f0f2fb3c
:1057d400129b4446051c002b00d1f5e0584605f009
:1057e400e9fb059903f0d1fa291c03f063fe159b2c
:1057f400051c012b00d1e9e0169b052b00d113e118
:10580400179b1d6095e0109b1e016b1086199b462b
:10581400002d00dc14e18bb200241f002b008a460b
:1058240025009946391989b2300000f0c9ff0134c6
:105834002d184c45f6d12c0057464d46129b002b93
:1058440000d0e2e04346591b002900dc79e05846c9
:10585400bab2531e5b199bb29b1a80b20133013159
:105864001b1a0291039301212b0017183500bfb2b4
:10587400a146a0460e0082469b460be0a14500ddf2
:10588400a146129b0137002b19d1029b0136bfb2ee
:105894009e4227d05346f91a89b2280000f090ff9f
:1058a400039b241af91889b2280000f089ff04190f
:1058b4004445e3dd129ba0460137002be5d0b9b285
:1058c400280000f07dff5b465843019b001b984273
:1058d4002adc049b8342d8dd029b01360490bfb2cc
:1058e4009e42d7d1584605f06bfc129b06000f0070
:1058f400002b2dd0019805f063fc32003b0003f02f
:1059040083f904f023fb041c049805f059fc3b00c4
:10591400320003f079f904f019fb011c201c05f096
:10592400a1fd179b186004e00190aee74a4b179a5b
:105934001360012007b03cbc90469946a246ab4692
:10594400f0bd280005f03cfca14606000f00a0466f
:10595400404605f035fc32003b0003f055f904f0f5
:10596400f5fa041c4846d0e7119805f023fb011c06
:10597400fe20800503f09efd0590bbe6019b484692
:10598400d91989b200f01cff6843831b9b4634007d
:1059940043465b1b002b00ddd0e6280005f00afb24
:1059a400051c1be7019a049b94466344e11889b2e1
:1059b400280000f005ff53465843801b834400e74a
:1059c400280005f0f7fa051c200008e7002105f07f
:1059d4004af9002800d013e780231b069c4665443f
:1059e4000ae7f317f4185c40129b002b00d19ee6e3
:1059f400019b4846d91989b200f0e2fe6843801b36
:105a0400c217831853409b46c2e75b46d91989b233
:105a1400300000f0d5fe42466843031b0493511b3b
:105a2400002911dd019312e70021281c05f01bf960
:105a3400002800d0e4e680231b069c466544dfe68c
:105a44000024fbe6002669e6280005f0b9fb049b68
:0c5a540006000f0001934de72b529a440e
:020000040000fa
:105a6000f0b5c646884600b500291add04000500d9
